:100000000C9434000C9451000C9451000C94890011
:100010000C9451000C9451000C9451000C9451001C
:100020000C9451000C9451000C9451000C9451000C
:100030000C9451000C9451000C9451000C945100FC
:100040000C9451000C9451000C9451000C945100EC
:100050000C9451000C9451000C9451000C945100DC
:100060000C9451000C94510011241FBECFEFD8E026
:10007000DEBFCDBF11E0A0E0B1E0E8ECF1E002C0EE
:1000800005900D92A230B107D9F721E0A2E0B1E0CE
:1000900001C01D92A330B207E1F70E947F000C94CB
:1000A000E2000C9400008AB182608AB98AB18E7F26
:1000B0008AB91092C000E1ECF0E080818869808309
:1000C00086E08093C20087E690E09093C50080931D
:1000D000C4000895F89484B1807C84B985B18F639D
:1000E00085B9E8E6F0E0808181608083EBE6F0E0AE
:1000F00080818F6380830E945300789408950E94CA
:100100006A00FFCF9091C00095FFFCCF8093C6009E
:1001100008951F920F920FB60F9211242F933F93C1
:100120004F935F936F937F938F939F93AF93BF93FF
:10013000CF93DF93EF93FF93D3B1C0910001CD270D
:10014000C0FF08C0D0FD06C081E08093020181E3BA
:100150000E948200C1FF05C0D1FD03C082E30E945E
:100160008200C2FF05C0D2FD03C083E30E9482006B
:10017000C3FF05C0D3FD03C084E30E948200C4FF17
:1001800005C0D4FD03C085E30E948200C5FF05C001
:10019000D5FD03C086E30E948200D0930001FF9149
:1001A000EF91DF91CF91BF91AF919F918F917F910F
:1001B0006F915F914F913F912F910F900FBE0F90D4
:0801C0001F901895F894FFCF81
:0201C800FF0036
:00000001FF
